:020000020000FC
:02000000F5C049
:1001EC00E4E4F2E0A0E0B0E220E011E01932B1F07A
:1001FC00059102950C940201073234F00C9406011F
:10020C00063734F00C940A0100E00D930C941101A4
:10021C000D930C94110113950C94FC0011E0A0E0CB
:10022C00B0E20C941901193231F00D91000E121E2E
:10023C0013950C941901FFCF01020304050607085E
:10024C00090A0B0C0D0E0F1011121314151617189A
:10025C00191A1B1C1D1E1F2021222324252627288A
:00000001FF
